{
  "_format": "hh-sol-artifact-1",
  "contractName": "MusicNFTMarketplace",
  "sourceName": "src/backend/contracts/MusicNFTMarketplace.sol",
  "abi": [
    {
      "inputs": [
        {
          "internalType": "uint256",
          "name": "_royaltyFee",
          "type": "uint256"
        },
        {
          "internalType": "uint256",
          "name": "_membershipFee",
          "type": "uint256"
        },
        {
          "internalType": "address",
          "name": "_artist",
          "type": "address"
        },
        {
          "internalType": "uint256[]",
          "name": "_prices",
          "type": "uint256[]"
        }
      ],
      "stateMutability": "payable",
      "type": "constructor"
    },
    {
      "anonymous": false,
      "inputs": [
        {
          "indexed": true,
          "internalType": "address",
          "name": "owner",
          "type": "address"
        },
        {
          "indexed": true,
          "internalType": "address",
          "name": "approved",
          "type": "address"
        },
        {
          "indexed": true,
          "internalType": "uint256",
          "name": "tokenId",
          "type": "uint256"
        }
      ],
      "name": "Approval",
      "type": "event"
    },
    {
      "anonymous": false,
      "inputs": [
        {
          "indexed": true,
          "internalType": "address",
          "name": "owner",
          "type": "address"
        },
        {
          "indexed": true,
          "internalType": "address",
          "name": "operator",
          "type": "address"
        },
        {
          "indexed": false,
          "internalType": "bool",
          "name": "approved",
          "type": "bool"
        }
      ],
      "name": "ApprovalForAll",
      "type": "event"
    },
    {
      "anonymous": false,
      "inputs": [
        {
          "indexed": true,
          "internalType": "uint256",
          "name": "tokenId",
          "type": "uint256"
        },
        {
          "indexed": true,
          "internalType": "address",
          "name": "seller",
          "type": "address"
        },
        {
          "indexed": false,
          "internalType": "address",
          "name": "buyer",
          "type": "address"
        },
        {
          "indexed": false,
          "internalType": "uint256",
          "name": "price",
          "type": "uint256"
        }
      ],
      "name": "MarketItemBought",
      "type": "event"
    },
    {
      "anonymous": false,
      "inputs": [
        {
          "indexed": true,
          "internalType": "uint256",
          "name": "tokenId",
          "type": "uint256"
        },
        {
          "indexed": true,
          "internalType": "address",
          "name": "seller",
          "type": "address"
        },
        {
          "indexed": false,
          "internalType": "uint256",
          "name": "price",
          "type": "uint256"
        }
      ],
      "name": "MarketItemRelisted",
      "type": "event"
    },
    {
      "anonymous": false,
      "inputs": [
        {
          "indexed": true,
          "internalType": "address",
          "name": "previousOwner",
          "type": "address"
        },
        {
          "indexed": true,
          "internalType": "address",
          "name": "newOwner",
          "type": "address"
        }
      ],
      "name": "OwnershipTransferred",
      "type": "event"
    },
    {
      "anonymous": false,
      "inputs": [
        {
          "indexed": true,
          "internalType": "address",
          "name": "from",
          "type": "address"
        },
        {
          "indexed": true,
          "internalType": "address",
          "name": "to",
          "type": "address"
        },
        {
          "indexed": true,
          "internalType": "uint256",
          "name": "tokenId",
          "type": "uint256"
        }
      ],
      "name": "Transfer",
      "type": "event"
    },
    {
      "inputs": [
        {
          "internalType": "address",
          "name": "to",
          "type": "address"
        },
        {
          "internalType": "uint256",
          "name": "tokenId",
          "type": "uint256"
        }
      ],
      "name": "approve",
      "outputs": [],
      "stateMutability": "nonpayable",
      "type": "function"
    },
    {
      "inputs": [],
      "name": "artist",
      "outputs": [
        {
          "internalType": "address",
          "name": "",
          "type": "address"
        }
      ],
      "stateMutability": "view",
      "type": "function"
    },
    {
      "inputs": [
        {
          "internalType": "address",
          "name": "owner",
          "type": "address"
        }
      ],
      "name": "balanceOf",
      "outputs": [
        {
          "internalType": "uint256",
          "name": "",
          "type": "uint256"
        }
      ],
      "stateMutability": "view",
      "type": "function"
    },
    {
      "inputs": [],
      "name": "baseExtension",
      "outputs": [
        {
          "internalType": "string",
          "name": "",
          "type": "string"
        }
      ],
      "stateMutability": "view",
      "type": "function"
    },
    {
      "inputs": [],
      "name": "baseURI",
      "outputs": [
        {
          "internalType": "string",
          "name": "",
          "type": "string"
        }
      ],
      "stateMutability": "view",
      "type": "function"
    },
    {
      "inputs": [
        {
          "internalType": "uint256",
          "name": "_tokenId",
          "type": "uint256"
        }
      ],
      "name": "buyToken",
      "outputs": [],
      "stateMutability": "payable",
      "type": "function"
    },
    {
      "inputs": [],
      "name": "checkMembers",
      "outputs": [
        {
          "internalType": "bool",
          "name": "",
          "type": "bool"
        }
      ],
      "stateMutability": "view",
      "type": "function"
    },
    {
      "inputs": [],
      "name": "getAllUnsoldTokens",
      "outputs": [
        {
          "components": [
            {
              "internalType": "uint256",
              "name": "tokenId",
              "type": "uint256"
            },
            {
              "internalType": "address payable",
              "name": "seller",
              "type": "address"
            },
            {
              "internalType": "uint256",
              "name": "price",
              "type": "uint256"
            }
          ],
          "internalType": "struct MusicNFTMarketplace.MarketItem[]",
          "name": "",
          "type": "tuple[]"
        }
      ],
      "stateMutability": "view",
      "type": "function"
    },
    {
      "inputs": [
        {
          "internalType": "uint256",
          "name": "tokenId",
          "type": "uint256"
        }
      ],
      "name": "getApproved",
      "outputs": [
        {
          "internalType": "address",
          "name": "",
          "type": "address"
        }
      ],
      "stateMutability": "view",
      "type": "function"
    },
    {
      "inputs": [],
      "name": "getMyTokens",
      "outputs": [
        {
          "components": [
            {
              "internalType": "uint256",
              "name": "tokenId",
              "type": "uint256"
            },
            {
              "internalType": "address payable",
              "name": "seller",
              "type": "address"
            },
            {
              "internalType": "uint256",
              "name": "price",
              "type": "uint256"
            }
          ],
          "internalType": "struct MusicNFTMarketplace.MarketItem[]",
          "name": "",
          "type": "tuple[]"
        }
      ],
      "stateMutability": "view",
      "type": "function"
    },
    {
      "inputs": [
        {
          "internalType": "address",
          "name": "owner",
          "type": "address"
        },
        {
          "internalType": "address",
          "name": "operator",
          "type": "address"
        }
      ],
      "name": "isApprovedForAll",
      "outputs": [
        {
          "internalType": "bool",
          "name": "",
          "type": "bool"
        }
      ],
      "stateMutability": "view",
      "type": "function"
    },
    {
      "inputs": [
        {
          "internalType": "uint256",
          "name": "",
          "type": "uint256"
        }
      ],
      "name": "marketItems",
      "outputs": [
        {
          "internalType": "uint256",
          "name": "tokenId",
          "type": "uint256"
        },
        {
          "internalType": "address payable",
          "name": "seller",
          "type": "address"
        },
        {
          "internalType": "uint256",
          "name": "price",
          "type": "uint256"
        }
      ],
      "stateMutability": "view",
      "type": "function"
    },
    {
      "inputs": [
        {
          "internalType": "uint256",
          "name": "",
          "type": "uint256"
        }
      ],
      "name": "members",
      "outputs": [
        {
          "internalType": "address",
          "name": "",
          "type": "address"
        }
      ],
      "stateMutability": "view",
      "type": "function"
    },
    {
      "inputs": [],
      "name": "membership",
      "outputs": [],
      "stateMutability": "payable",
      "type": "function"
    },
    {
      "inputs": [],
      "name": "membershipFee",
      "outputs": [
        {
          "internalType": "uint256",
          "name": "",
          "type": "uint256"
        }
      ],
      "stateMutability": "view",
      "type": "function"
    },
    {
      "inputs": [],
      "name": "name",
      "outputs": [
        {
          "internalType": "string",
          "name": "",
          "type": "string"
        }
      ],
      "stateMutability": "view",
      "type": "function"
    },
    {
      "inputs": [],
      "name": "owner",
      "outputs": [
        {
          "internalType": "address",
          "name": "",
          "type": "address"
        }
      ],
      "stateMutability": "view",
      "type": "function"
    },
    {
      "inputs": [
        {
          "internalType": "uint256",
          "name": "tokenId",
          "type": "uint256"
        }
      ],
      "name": "ownerOf",
      "outputs": [
        {
          "internalType": "address",
          "name": "",
          "type": "address"
        }
      ],
      "stateMutability": "view",
      "type": "function"
    },
    {
      "inputs": [],
      "name": "renounceOwnership",
      "outputs": [],
      "stateMutability": "nonpayable",
      "type": "function"
    },
    {
      "inputs": [
        {
          "internalType": "uint256",
          "name": "_tokenId",
          "type": "uint256"
        },
        {
          "internalType": "uint256",
          "name": "_price",
          "type": "uint256"
        }
      ],
      "name": "resellToken",
      "outputs": [],
      "stateMutability": "payable",
      "type": "function"
    },
    {
      "inputs": [],
      "name": "royaltyFee",
      "outputs": [
        {
          "internalType": "uint256",
          "name": "",
          "type": "uint256"
        }
      ],
      "stateMutability": "view",
      "type": "function"
    },
    {
      "inputs": [
        {
          "internalType": "address",
          "name": "from",
          "type": "address"
        },
        {
          "internalType": "address",
          "name": "to",
          "type": "address"
        },
        {
          "internalType": "uint256",
          "name": "tokenId",
          "type": "uint256"
        }
      ],
      "name": "safeTransferFrom",
      "outputs": [],
      "stateMutability": "nonpayable",
      "type": "function"
    },
    {
      "inputs": [
        {
          "internalType": "address",
          "name": "from",
          "type": "address"
        },
        {
          "internalType": "address",
          "name": "to",
          "type": "address"
        },
        {
          "internalType": "uint256",
          "name": "tokenId",
          "type": "uint256"
        },
        {
          "internalType": "bytes",
          "name": "_data",
          "type": "bytes"
        }
      ],
      "name": "safeTransferFrom",
      "outputs": [],
      "stateMutability": "nonpayable",
      "type": "function"
    },
    {
      "inputs": [
        {
          "internalType": "address",
          "name": "operator",
          "type": "address"
        },
        {
          "internalType": "bool",
          "name": "approved",
          "type": "bool"
        }
      ],
      "name": "setApprovalForAll",
      "outputs": [],
      "stateMutability": "nonpayable",
      "type": "function"
    },
    {
      "inputs": [
        {
          "internalType": "bytes4",
          "name": "interfaceId",
          "type": "bytes4"
        }
      ],
      "name": "supportsInterface",
      "outputs": [
        {
          "internalType": "bool",
          "name": "",
          "type": "bool"
        }
      ],
      "stateMutability": "view",
      "type": "function"
    },
    {
      "inputs": [],
      "name": "symbol",
      "outputs": [
        {
          "internalType": "string",
          "name": "",
          "type": "string"
        }
      ],
      "stateMutability": "view",
      "type": "function"
    },
    {
      "inputs": [
        {
          "internalType": "uint256",
          "name": "tokenId",
          "type": "uint256"
        }
      ],
      "name": "tokenURI",
      "outputs": [
        {
          "internalType": "string",
          "name": "",
          "type": "string"
        }
      ],
      "stateMutability": "view",
      "type": "function"
    },
    {
      "inputs": [
        {
          "internalType": "address",
          "name": "from",
          "type": "address"
        },
        {
          "internalType": "address",
          "name": "to",
          "type": "address"
        },
        {
          "internalType": "uint256",
          "name": "tokenId",
          "type": "uint256"
        }
      ],
      "name": "transferFrom",
      "outputs": [],
      "stateMutability": "nonpayable",
      "type": "function"
    },
    {
      "inputs": [
        {
          "internalType": "address",
          "name": "newOwner",
          "type": "address"
        }
      ],
      "name": "transferOwnership",
      "outputs": [],
      "stateMutability": "nonpayable",
      "type": "function"
    },
    {
      "inputs": [
        {
          "internalType": "uint256",
          "name": "_royaltyFee",
          "type": "uint256"
        }
      ],
      "name": "updateRoyaltyFee",
      "outputs": [],
      "stateMutability": "nonpayable",
      "type": "function"
    }
  ],
  "bytecode": "0x608060405260405180608001604052806059815260200162004c686059913960079080519060200190620000359291906200071a565b506040518060400160405280600581526020017f2e6a736f6e00000000000000000000000000000000000000000000000000000081525060089080519060200190620000839291906200071a565b5060405162004cc138038062004cc18339818101604052810190620000a991906200089a565b6040518060400160405280600681526020017f44417070466900000000000000000000000000000000000000000000000000008152506040518060400160405280600481526020017f444150500000000000000000000000000000000000000000000000000000000081525081600090805190602001906200012d9291906200071a565b508060019080519060200190620001469291906200071a565b505050620001696200015d620003dc60201b60201c565b620003e460201b60201c565b3484825162000179919062000b09565b1115620001bd576040517f08c379a0000000000000000000000000000000000000000000000000000000008152600401620001b490620009ff565b60405180910390fd5b83600a8190555081600960006101000a81548173ffffffffffffffffffffffffffffffffffffffff021916908373ffffffffffffffffffffffffffffffffffffffff16021790555082600b8190555060005b81518160ff161015620003d1576000828260ff16815181106200025b577f4e487b7100000000000000000000000000000000000000000000000000000000600052603260045260246000fd5b602002602001015111620002a6576040517f08c379a00000000000000000000000000000000000000000000000000000000081526004016200029d9062000a21565b60405180910390fd5b620002bb308260ff16620004aa60201b60201c565b600d60405180606001604052808360ff1681526020013373ffffffffffffffffffffffffffffffffffffffff168152602001848460ff16815181106200032a577f4e487b7100000000000000000000000000000000000000000000000000000000600052603260045260246000fd5b602002602001015181525090806001815401808255809150506001900390600052602060002090600302016000909190919091506000820151816000015560208201518160010160006101000a81548173ffffffffffffffffffffffffffffffffffffffff021916908373ffffffffffffffffffffffffffffffffffffffff1602179055506040820151816002015550508080620003c89062000c21565b9150506200020f565b505050505062000e12565b600033905090565b6000600660009054906101000a900473ffffffffffffffffffffffffffffffffffffffff16905081600660006101000a81548173ffffffffffffffffffffffffffffffffffffffff021916908373ffffffffffffffffffffffffffffffffffffffff1602179055508173ffffffffffffffffffffffffffffffffffffffff168173ffffffffffffffffffffffffffffffffffffffff167f8be0079c531659141344cd1fd0a4f28419497f9722a3daafe3b4186f6b6457e060405160405180910390a35050565b600073ffffffffffffffffffffffffffffffffffffffff168273ffffffffffffffffffffffffffffffffffffffff1614156200051d576040517f08c379a00000000000000000000000000000000000000000000000000000000081526004016200051490620009dd565b60405180910390fd5b6200052e81620006a460201b60201c565b1562000571576040517f08c379a00000000000000000000000000000000000000000000000000000000081526004016200056890620009bb565b60405180910390fd5b62000585600083836200071060201b60201c565b6001600360008473ffffffffffffffffffffffffffffffffffffffff1673ffffffffffffffffffffffffffffffffffffffff1681526020019081526020016000206000828254620005d7919062000aac565b92505081905550816002600083815260200190815260200160002060006101000a81548173ffffffffffffffffffffffffffffffffffffffff021916908373ffffffffffffffffffffffffffffffffffffffff160217905550808273ffffffffffffffffffffffffffffffffffffffff16600073ffffffffffffffffffffffffffffffffffffffff167fddf252ad1be2c89b69c2b068fc378daa952ba7f163c4a11628f55a4df523b3ef60405160405180910390a4620006a0600083836200071560201b60201c565b5050565b60008073ffffffffffffffffffffffffffffffffffffffff166002600084815260200190815260200160002060009054906101000a900473ffffffffffffffffffffffffffffffffffffffff1673ffffffffffffffffffffffffffffffffffffffff1614159050919050565b505050565b505050565b828054620007289062000bb5565b90600052602060002090601f0160209004810192826200074c576000855562000798565b82601f106200076757805160ff191683800117855562000798565b8280016001018555821562000798579182015b82811115620007975782518255916020019190600101906200077a565b5b509050620007a79190620007ab565b5090565b5b80821115620007c6576000816000905550600101620007ac565b5090565b6000620007e1620007db8462000a6c565b62000a43565b905080838252602082019050828560208602820111156200080157600080fd5b60005b858110156200083557816200081a888262000883565b84526020840193506020830192505060018101905062000804565b5050509392505050565b600081519050620008508162000dde565b92915050565b600082601f8301126200086857600080fd5b81516200087a848260208601620007ca565b91505092915050565b600081519050620008948162000df8565b92915050565b60008060008060808587031215620008b157600080fd5b6000620008c18782880162000883565b9450506020620008d48782880162000883565b9350506040620008e7878288016200083f565b925050606085015167ffffffffffffffff8111156200090557600080fd5b620009138782880162000856565b91505092959194509250565b60006200092e601c8362000a9b565b91506200093b8262000cee565b602082019050919050565b60006200095560208362000a9b565b9150620009628262000d17565b602082019050919050565b60006200097c60468362000a9b565b9150620009898262000d40565b606082019050919050565b6000620009a3601c8362000a9b565b9150620009b08262000db5565b602082019050919050565b60006020820190508181036000830152620009d6816200091f565b9050919050565b60006020820190508181036000830152620009f88162000946565b9050919050565b6000602082019050818103600083015262000a1a816200096d565b9050919050565b6000602082019050818103600083015262000a3c8162000994565b9050919050565b600062000a4f62000a62565b905062000a5d828262000beb565b919050565b6000604051905090565b600067ffffffffffffffff82111562000a8a5762000a8962000cae565b5b602082029050602081019050919050565b600082825260208201905092915050565b600062000ab98262000b9e565b915062000ac68362000b9e565b9250827fffffffffffffffffffffffffffffffffffffffffffffffffffffffffffffffff0382111562000afe5762000afd62000c50565b5b828201905092915050565b600062000b168262000b9e565b915062000b238362000b9e565b9250817fffffffffffffffffffffffffffffffffffffffffffffffffffffffffffffffff048311821515161562000b5f5762000b5e62000c50565b5b828202905092915050565b600062000b778262000b7e565b9050919050565b600073ffffffffffffffffffffffffffffffffffffffff82169050919050565b6000819050919050565b600060ff82169050919050565b6000600282049050600182168062000bce57607f821691505b6020821081141562000be55762000be462000c7f565b5b50919050565b62000bf68262000cdd565b810181811067ffffffffffffffff8211171562000c185762000c1762000cae565b5b80604052505050565b600062000c2e8262000ba8565b915060ff82141562000c455762000c4462000c50565b5b600182019050919050565b7f4e487b7100000000000000000000000000000000000000000000000000000000600052601160045260246000fd5b7f4e487b7100000000000000000000000000000000000000000000000000000000600052602260045260246000fd5b7f4e487b7100000000000000000000000000000000000000000000000000000000600052604160045260246000fd5b6000601f19601f8301169050919050565b7f4552433732313a20746f6b656e20616c7265616479206d696e74656400000000600082015250565b7f4552433732313a206d696e7420746f20746865207a65726f2061646472657373600082015250565b7f4465706c6f796572206d7573742070617920726f79616c74792066656520666f60008201527f72206561636820746f6b656e206c6973746564206f6e20746865206d61726b6560208201527f74706c6163650000000000000000000000000000000000000000000000000000604082015250565b7f5072696365206d7573742062652067726561746572207468616e203000000000600082015250565b62000de98162000b6a565b811462000df557600080fd5b50565b62000e038162000b9e565b811462000e0f57600080fd5b50565b613e468062000e226000396000f3fe6080604052600436106101cd5760003560e01c806370a08231116100f7578063b88d4fde11610095578063c87b56dd11610064578063c87b56dd1461064e578063e219fc751461068b578063e985e9c5146106a7578063f2fde38b146106e4576101cd565b8063b88d4fde146105a4578063b8997a97146105cd578063c6682862146105f8578063c713a28914610623576101cd565b80638da5cb5b116100d15780638da5cb5b1461051b57806395d89b4114610546578063a22cb46514610571578063a2bf68b91461059a576101cd565b806370a082311461049c578063715018a6146104d9578063767dd076146104f0576101cd565b806343bc16121161016f5780635daf08ca1161013e5780635daf08ca146103cc5780635ff9ea77146104095780636352211e146104345780636c0360eb14610471576101cd565b806343bc16121461030e5780634e83be471461033957806351f28e14146103625780635b3b136a146103a1576101cd565b8063095ea7b3116101ab578063095ea7b31461027757806323b872dd146102a05780632d296bf1146102c957806342842e0e146102e5576101cd565b806301ffc9a7146101d257806306fdde031461020f578063081812fc1461023a575b600080fd5b3480156101de57600080fd5b506101f960048036038101906101f49190612bcc565b61070d565b60405161020691906131a7565b60405180910390f35b34801561021b57600080fd5b506102246107ef565b60405161023191906131c2565b60405180910390f35b34801561024657600080fd5b50610261600480360381019061025c9190612c1e565b610881565b60405161026e91906130f5565b60405180910390f35b34801561028357600080fd5b5061029e60048036038101906102999190612b90565b610906565b005b3480156102ac57600080fd5b506102c760048036038101906102c29190612a8a565b610a1e565b005b6102e360048036038101906102de9190612c1e565b610a7e565b005b3480156102f157600080fd5b5061030c60048036038101906103079190612a8a565b610d1e565b005b34801561031a57600080fd5b50610323610d3e565b60405161033091906130f5565b60405180910390f35b34801561034557600080fd5b50610360600480360381019061035b9190612c1e565b610d64565b005b34801561036e57600080fd5b5061038960048036038101906103849190612c1e565b610dea565b6040516103989392919061345f565b60405180910390f35b3480156103ad57600080fd5b506103b6610e44565b6040516103c39190613185565b60405180910390f35b3480156103d857600080fd5b506103f360048036038101906103ee9190612c1e565b61104f565b60405161040091906130f5565b60405180910390f35b34801561041557600080fd5b5061041e61108e565b60405161042b91906131a7565b60405180910390f35b34801561044057600080fd5b5061045b60048036038101906104569190612c1e565b611161565b60405161046891906130f5565b60405180910390f35b34801561047d57600080fd5b50610486611213565b60405161049391906131c2565b60405180910390f35b3480156104a857600080fd5b506104c360048036038101906104be9190612a25565b6112a1565b6040516104d09190613444565b60405180910390f35b3480156104e557600080fd5b506104ee611359565b005b3480156104fc57600080fd5b506105056113e1565b6040516105129190613185565b60405180910390f35b34801561052757600080fd5b5061053061164f565b60405161053d91906130f5565b60405180910390f35b34801561055257600080fd5b5061055b611679565b60405161056891906131c2565b60405180910390f35b34801561057d57600080fd5b5061059860048036038101906105939190612b54565b61170b565b005b6105a2611721565b005b3480156105b057600080fd5b506105cb60048036038101906105c69190612ad9565b6118c1565b005b3480156105d957600080fd5b506105e2611923565b6040516105ef9190613444565b60405180910390f35b34801561060457600080fd5b5061060d611929565b60405161061a91906131c2565b60405180910390f35b34801561062f57600080fd5b506106386119b7565b6040516106459190613444565b60405180910390f35b34801561065a57600080fd5b5061067560048036038101906106709190612c1e565b6119bd565b60405161068291906131c2565b60405180910390f35b6106a560048036038101906106a09190612c47565b611a64565b005b3480156106b357600080fd5b506106ce60048036038101906106c99190612a4e565b611c23565b6040516106db91906131a7565b60405180910390f35b3480156106f057600080fd5b5061070b60048036038101906107069190612a25565b611cb7565b005b60007f80ac58cd000000000000000000000000000000000000000000000000000000007bffffffffffffffffffffffffffffffffffffffffffffffffffffffff1916827bffffffffffffffffffffffffffffffffffffffffffffffffffffffff191614806107d857507f5b5e139f000000000000000000000000000000000000000000000000000000007bffffffffffffffffffffffffffffffffffffffffffffffffffffffff1916827bffffffffffffffffffffffffffffffffffffffffffffffffffffffff1916145b806107e857506107e782611daf565b5b9050919050565b6060600080546107fe906136eb565b80601f016020809104026020016040519081016040528092919081815260200182805461082a906136eb565b80156108775780601f1061084c57610100808354040283529160200191610877565b820191906000526020600020905b81548152906001019060200180831161085a57829003601f168201915b5050505050905090565b600061088c82611e19565b6108cb576040517f08c379a00000000000000000000000000000000000000000000000000000000081526004016108c290613384565b60405180910390fd5b6004600083815260200190815260200160002060009054906101000a900473ffffffffffffffffffffffffffffffffffffffff169050919050565b600061091182611161565b90508073ffffffffffffffffffffffffffffffffffffffff168373ffffffffffffffffffffffffffffffffffffffff161415610982576040517f08c379a000000000000000000000000000000000000000000000000000000000815260040161097990613404565b60405180910390fd5b8073ffffffffffffffffffffffffffffffffffffffff166109a1611e85565b73ffffffffffffffffffffffffffffffffffffffff1614806109d057506109cf816109ca611e85565b611c23565b5b610a0f576040517f08c379a0000000000000000000000000000000000000000000000000000000008152600401610a06906132e4565b60405180910390fd5b610a198383611e8d565b505050565b610a2f610a29611e85565b82611f46565b610a6e576040517f08c379a0000000000000000000000000000000000000000000000000000000008152600401610a6590613424565b60405180910390fd5b610a79838383612024565b505050565b6000600d8281548110610aba577f4e487b7100000000000000000000000000000000000000000000000000000000600052603260045260246000fd5b90600052602060002090600302016002015490506000600d8381548110610b0a577f4e487b7100000000000000000000000000000000000000000000000000000000600052603260045260246000fd5b906000526020600020906003020160010160009054906101000a900473ffffffffffffffffffffffffffffffffffffffff169050813414610b80576040517f08c379a0000000000000000000000000000000000000000000000000000000008152600401610b7790613364565b60405180910390fd5b6000600d8481548110610bbc577f4e487b7100000000000000000000000000000000000000000000000000000000600052603260045260246000fd5b906000526020600020906003020160010160006101000a81548173ffffffffffffffffffffffffffffffffffffffff021916908373ffffffffffffffffffffffffffffffffffffffff160217905550610c16303385612024565b600960009054906101000a900473ffffffffffffffffffffffffffffffffffffffff1673ffffffffffffffffffffffffffffffffffffffff166108fc600a549081150290604051600060405180830381858888f19350505050158015610c80573d6000803e3d6000fd5b508073ffffffffffffffffffffffffffffffffffffffff166108fc349081150290604051600060405180830381858888f19350505050158015610cc7573d6000803e3d6000fd5b508073ffffffffffffffffffffffffffffffffffffffff16837fd356b8423ef89ccba8e4f1dbeccc60b41825fd97d432f2e6a6dbd11ae6ecec113385604051610d1192919061315c565b60405180910390a3505050565b610d39838383604051806020016040528060008152506118c1565b505050565b600960009054906101000a900473ffffffffffffffffffffffffffffffffffffffff1681565b610d6c611e85565b73ffffffffffffffffffffffffffffffffffffffff16610d8a61164f565b73ffffffffffffffffffffffffffffffffffffffff1614610de0576040517f08c379a0000000000000000000000000000000000000000000000000000000008152600401610dd7906133a4565b60405180910390fd5b80600a8190555050565b600d8181548110610dfa57600080fd5b90600052602060002090600302016000915090508060000154908060010160009054906101000a900473ffffffffffffffffffffffffffffffffffffffff16908060020154905083565b60606000610e51336112a1565b905060008167ffffffffffffffff811115610e95577f4e487b7100000000000000000000000000000000000000000000000000000000600052604160045260246000fd5b604051908082528060200260200182016040528015610ece57816020015b610ebb61291d565b815260200190600190039081610eb35790505b509050600080600090505b600d80549050811015611045573373ffffffffffffffffffffffffffffffffffffffff16610f0682611161565b73ffffffffffffffffffffffffffffffffffffffff16141561103257600d8181548110610f5c577f4e487b7100000000000000000000000000000000000000000000000000000000600052603260045260246000fd5b9060005260206000209060030201604051806060016040529081600082015481526020016001820160009054906101000a900473ffffffffffffffffffffffffffffffffffffffff1673ffffffffffffffffffffffffffffffffffffffff1673ffffffffffffffffffffffffffffffffffffffff168152602001600282015481525050838381518110611018577f4e487b7100000000000000000000000000000000000000000000000000000000600052603260045260246000fd5b6020026020010181905250818061102e9061374e565b9250505b808061103d9061374e565b915050610ed9565b5081935050505090565b600c818154811061105f57600080fd5b906000526020600020016000915054906101000a900473ffffffffffffffffffffffffffffffffffffffff1681565b600080600090505b600c80549050811015611158573373ffffffffffffffffffffffffffffffffffffffff16600c82815481106110f4577f4e487b7100000000000000000000000000000000000000000000000000000000600052603260045260246000fd5b9060005260206000200160009054906101000a900473ffffffffffffffffffffffffffffffffffffffff1673ffffffffffffffffffffffffffffffffffffffff16141561114557600191505061115e565b80806111509061374e565b915050611096565b50600090505b90565b6000806002600084815260200190815260200160002060009054906101000a900473ffffffffffffffffffffffffffffffffffffffff169050600073ffffffffffffffffffffffffffffffffffffffff168173ffffffffffffffffffffffffffffffffffffffff16141561120a576040517f08c379a000000000000000000000000000000000000000000000000000000000815260040161120190613324565b60405180910390fd5b80915050919050565b60078054611220906136eb565b80601f016020809104026020016040519081016040528092919081815260200182805461124c906136eb565b80156112995780601f1061126e57610100808354040283529160200191611299565b820191906000526020600020905b81548152906001019060200180831161127c57829003601f168201915b505050505081565b60008073ffffffffffffffffffffffffffffffffffffffff168273ffffffffffffffffffffffffffffffffffffffff161415611312576040517f08c379a000000000000000000000000000000000000000000000000000000000815260040161130990613304565b60405180910390fd5b600360008373ffffffffffffffffffffffffffffffffffffffff1673ffffffffffffffffffffffffffffffffffffffff168152602001908152602001600020549050919050565b611361611e85565b73ffffffffffffffffffffffffffffffffffffffff1661137f61164f565b73ffffffffffffffffffffffffffffffffffffffff16146113d5576040517f08c379a00000000000000000000000000000000000000000000000000000000081526004016113cc906133a4565b60405180910390fd5b6113df600061228b565b565b606060006113ee306112a1565b905060008167ffffffffffffffff811115611432577f4e487b7100000000000000000000000000000000000000000000000000000000600052604160045260246000fd5b60405190808252806020026020018201604052801561146b57816020015b61145861291d565b8152602001906001900390816114505790505b509050600080600090505b600d8054905081101561164557600073ffffffffffffffffffffffffffffffffffffffff16600d82815481106114d5577f4e487b7100000000000000000000000000000000000000000000000000000000600052603260045260246000fd5b906000526020600020906003020160010160009054906101000a900473ffffffffffffffffffffffffffffffffffffffff1673ffffffffffffffffffffffffffffffffffffffff161461163257600d818154811061155c577f4e487b7100000000000000000000000000000000000000000000000000000000600052603260045260246000fd5b9060005260206000209060030201604051806060016040529081600082015481526020016001820160009054906101000a900473ffffffffffffffffffffffffffffffffffffffff1673ffffffffffffffffffffffffffffffffffffffff1673ffffffffffffffffffffffffffffffffffffffff168152602001600282015481525050838381518110611618577f4e487b7100000000000000000000000000000000000000000000000000000000600052603260045260246000fd5b6020026020010181905250818061162e9061374e565b9250505b808061163d9061374e565b915050611476565b5081935050505090565b6000600660009054906101000a900473ffffffffffffffffffffffffffffffffffffffff16905090565b606060018054611688906136eb565b80601f01602080910402602001604051908101604052809291908181526020018280546116b4906136eb565b80156117015780601f106116d657610100808354040283529160200191611701565b820191906000526020600020905b8154815290600101906020018083116116e457829003601f168201915b5050505050905090565b61171d611716611e85565b8383612351565b5050565b60005b600c80549050811015611817573373ffffffffffffffffffffffffffffffffffffffff16600c8281548110611782577f4e487b7100000000000000000000000000000000000000000000000000000000600052603260045260246000fd5b9060005260206000200160009054906101000a900473ffffffffffffffffffffffffffffffffffffffff1673ffffffffffffffffffffffffffffffffffffffff161415611804576040517f08c379a00000000000000000000000000000000000000000000000000000000081526004016117fb906133c4565b60405180910390fd5b808061180f9061374e565b915050611724565b50600b54341461185c576040517f08c379a000000000000000000000000000000000000000000000000000000000815260040161185390613344565b60405180910390fd5b600c339080600181540180825580915050600190039060005260206000200160009091909190916101000a81548173ffffffffffffffffffffffffffffffffffffffff021916908373ffffffffffffffffffffffffffffffffffffffff160217905550565b6118d26118cc611e85565b83611f46565b611911576040517f08c379a000000000000000000000000000000000000000000000000000000000815260040161190890613424565b60405180910390fd5b61191d848484846124be565b50505050565b600a5481565b60088054611936906136eb565b80601f0160208091040260200160405190810160405280929190818152602001828054611962906136eb565b80156119af5780601f10611984576101008083540402835291602001916119af565b820191906000526020600020905b81548152906001019060200180831161199257829003601f168201915b505050505081565b600b5481565b60606119c882611e19565b611a07576040517f08c379a00000000000000000000000000000000000000000000000000000000081526004016119fe906133e4565b60405180910390fd5b6000611a1161251a565b90506000815111611a315760405180602001604052806000815250611a5c565b80611a3b846125ac565b604051602001611a4c9291906130d1565b6040516020818303038152906040525b915050919050565b600a543414611aa8576040517f08c379a0000000000000000000000000000000000000000000000000000000008152600401611a9f90613264565b60405180910390fd5b60008111611aeb576040517f08c379a0000000000000000000000000000000000000000000000000000000008152600401611ae2906131e4565b60405180910390fd5b80600d8381548110611b26577f4e487b7100000000000000000000000000000000000000000000000000000000600052603260045260246000fd5b90600052602060002090600302016002018190555033600d8381548110611b76577f4e487b7100000000000000000000000000000000000000000000000000000000600052603260045260246000fd5b906000526020600020906003020160010160006101000a81548173ffffffffffffffffffffffffffffffffffffffff021916908373ffffffffffffffffffffffffffffffffffffffff160217905550611bd0333084612024565b3373ffffffffffffffffffffffffffffffffffffffff16827fb2ba12d2566848b13548a3741edb565b69d3cbce7796959cd67431610207eb1383604051611c179190613444565b60405180910390a35050565b6000600560008473ffffffffffffffffffffffffffffffffffffffff1673ffffffffffffffffffffffffffffffffffffffff16815260200190815260200160002060008373ffffffffffffffffffffffffffffffffffffffff1673ffffffffffffffffffffffffffffffffffffffff16815260200190815260200160002060009054906101000a900460ff16905092915050565b611cbf611e85565b73ffffffffffffffffffffffffffffffffffffffff16611cdd61164f565b73ffffffffffffffffffffffffffffffffffffffff1614611d33576040517f08c379a0000000000000000000000000000000000000000000000000000000008152600401611d2a906133a4565b60405180910390fd5b600073ffffffffffffffffffffffffffffffffffffffff168173ffffffffffffffffffffffffffffffffffffffff161415611da3576040517f08c379a0000000000000000000000000000000000000000000000000000000008152600401611d9a90613224565b60405180910390fd5b611dac8161228b565b50565b60007f01ffc9a7000000000000000000000000000000000000000000000000000000007bffffffffffffffffffffffffffffffffffffffffffffffffffffffff1916827bffffffffffffffffffffffffffffffffffffffffffffffffffffffff1916149050919050565b60008073ffffffffffffffffffffffffffffffffffffffff166002600084815260200190815260200160002060009054906101000a900473ffffffffffffffffffffffffffffffffffffffff1673ffffffffffffffffffffffffffffffffffffffff1614159050919050565b600033905090565b816004600083815260200190815260200160002060006101000a81548173ffffffffffffffffffffffffffffffffffffffff021916908373ffffffffffffffffffffffffffffffffffffffff160217905550808273ffffffffffffffffffffffffffffffffffffffff16611f0083611161565b73ffffffffffffffffffffffffffffffffffffffff167f8c5be1e5ebec7d5bd14f71427d1e84f3dd0314c0f7b2291e5b200ac8c7c3b92560405160405180910390a45050565b6000611f5182611e19565b611f90576040517f08c379a0000000000000000000000000000000000000000000000000000000008152600401611f87906132c4565b60405180910390fd5b6000611f9b83611161565b90508073ffffffffffffffffffffffffffffffffffffffff168473ffffffffffffffffffffffffffffffffffffffff16148061200a57508373ffffffffffffffffffffffffffffffffffffffff16611ff284610881565b73ffffffffffffffffffffffffffffffffffffffff16145b8061201b575061201a8185611c23565b5b91505092915050565b8273ffffffffffffffffffffffffffffffffffffffff1661204482611161565b73ffffffffffffffffffffffffffffffffffffffff161461209a576040517f08c379a000000000000000000000000000000000000000000000000000000000815260040161209190613244565b60405180910390fd5b600073ffffffffffffffffffffffffffffffffffffffff168273ffffffffffffffffffffffffffffffffffffffff16141561210a576040517f08c379a000000000000000000000000000000000000000000000000000000000815260040161210190613284565b60405180910390fd5b612115838383612759565b612120600082611e8d565b6001600360008573ffffffffffffffffffffffffffffffffffffffff1673ffffffffffffffffffffffffffffffffffffffff168152602001908152602001600020600082825461217091906135ef565b925050819055506001600360008473ffffffffffffffffffffffffffffffffffffffff1673ffffffffffffffffffffffffffffffffffffffff16815260200190815260200160002060008282546121c79190613568565b92505081905550816002600083815260200190815260200160002060006101000a81548173ffffffffffffffffffffffffffffffffffffffff021916908373ffffffffffffffffffffffffffffffffffffffff160217905550808273ffffffffffffffffffffffffffffffffffffffff168473ffffffffffffffffffffffffffffffffffffffff167fddf252ad1be2c89b69c2b068fc378daa952ba7f163c4a11628f55a4df523b3ef60405160405180910390a461228683838361275e565b505050565b6000600660009054906101000a900473ffffffffffffffffffffffffffffffffffffffff16905081600660006101000a81548173ffffffffffffffffffffffffffffffffffffffff021916908373ffffffffffffffffffffffffffffffffffffffff1602179055508173ffffffffffffffffffffffffffffffffffffffff168173ffffffffffffffffffffffffffffffffffffffff167f8be0079c531659141344cd1fd0a4f28419497f9722a3daafe3b4186f6b6457e060405160405180910390a35050565b8173ffffffffffffffffffffffffffffffffffffffff168373ffffffffffffffffffffffffffffffffffffffff1614156123c0576040517f08c379a00000000000000000000000000000000000000000000000000000000081526004016123b7906132a4565b60405180910390fd5b80600560008573ffffffffffffffffffffffffffffffffffffffff1673ffffffffffffffffffffffffffffffffffffffff16815260200190815260200160002060008473ffffffffffffffffffffffffffffffffffffffff1673ffffffffffffffffffffffffffffffffffffffff16815260200190815260200160002060006101000a81548160ff0219169083151502179055508173ffffffffffffffffffffffffffffffffffffffff168373ffffffffffffffffffffffffffffffffffffffff167f17307eab39ab6107e8899845ad3d59bd9653f200f220920489ca2b5937696c31836040516124b191906131a7565b60405180910390a3505050565b6124c9848484612024565b6124d584848484612763565b612514576040517f08c379a000000000000000000000000000000000000000000000000000000000815260040161250b90613204565b60405180910390fd5b50505050565b606060078054612529906136eb565b80601f0160208091040260200160405190810160405280929190818152602001828054612555906136eb565b80156125a25780601f10612577576101008083540402835291602001916125a2565b820191906000526020600020905b81548152906001019060200180831161258557829003601f168201915b5050505050905090565b606060008214156125f4576040518060400160405280600181526020017f30000000000000000000000000000000000000000000000000000000000000008152509050612754565b600082905060005b6000821461262657808061260f9061374e565b915050600a8261261f91906135be565b91506125fc565b60008167ffffffffffffffff811115612668577f4e487b7100000000000000000000000000000000000000000000000000000000600052604160045260246000fd5b6040519080825280601f01601f19166020018201604052801561269a5781602001600182028036833780820191505090505b5090505b6000851461274d576001826126b391906135ef565b9150600a856126c29190613797565b60306126ce9190613568565b60f81b81838151811061270a577f4e487b7100000000000000000000000000000000000000000000000000000000600052603260045260246000fd5b60200101907effffffffffffffffffffffffffffffffffffffffffffffffffffffffffffff1916908160001a905350600a8561274691906135be565b945061269e565b8093505050505b919050565b505050565b505050565b60006127848473ffffffffffffffffffffffffffffffffffffffff166128fa565b156128ed578373ffffffffffffffffffffffffffffffffffffffff1663150b7a026127ad611e85565b8786866040518563ffffffff1660e01b81526004016127cf9493929190613110565b602060405180830381600087803b1580156127e957600080fd5b505af192505050801561281a57506040513d601f19601f820116820180604052508101906128179190612bf5565b60015b61289d573d806000811461284a576040519150601f19603f3d011682016040523d82523d6000602084013e61284f565b606091505b50600081511415612895576040517f08c379a000000000000000000000000000000000000000000000000000000000815260040161288c90613204565b60405180910390fd5b805181602001fd5b63150b7a0260e01b7bffffffffffffffffffffffffffffffffffffffffffffffffffffffff1916817bffffffffffffffffffffffffffffffffffffffffffffffffffffffff1916149150506128f2565b600190505b949350505050565b6000808273ffffffffffffffffffffffffffffffffffffffff163b119050919050565b604051806060016040528060008152602001600073ffffffffffffffffffffffffffffffffffffffff168152602001600081525090565b6000612967612962846134bb565b613496565b90508281526020810184848401111561297f57600080fd5b61298a8482856136a9565b509392505050565b6000813590506129a181613db4565b92915050565b6000813590506129b681613dcb565b92915050565b6000813590506129cb81613de2565b92915050565b6000815190506129e081613de2565b92915050565b600082601f8301126129f757600080fd5b8135612a07848260208601612954565b91505092915050565b600081359050612a1f81613df9565b92915050565b600060208284031215612a3757600080fd5b6000612a4584828501612992565b91505092915050565b60008060408385031215612a6157600080fd5b6000612a6f85828601612992565b9250506020612a8085828601612992565b9150509250929050565b600080600060608486031215612a9f57600080fd5b6000612aad86828701612992565b9350506020612abe86828701612992565b9250506040612acf86828701612a10565b9150509250925092565b60008060008060808587031215612aef57600080fd5b6000612afd87828801612992565b9450506020612b0e87828801612992565b9350506040612b1f87828801612a10565b925050606085013567ffffffffffffffff811115612b3c57600080fd5b612b48878288016129e6565b91505092959194509250565b60008060408385031215612b6757600080fd5b6000612b7585828601612992565b9250506020612b86858286016129a7565b9150509250929050565b60008060408385031215612ba357600080fd5b6000612bb185828601612992565b9250506020612bc285828601612a10565b9150509250929050565b600060208284031215612bde57600080fd5b6000612bec848285016129bc565b91505092915050565b600060208284031215612c0757600080fd5b6000612c15848285016129d1565b91505092915050565b600060208284031215612c3057600080fd5b6000612c3e84828501612a10565b91505092915050565b60008060408385031215612c5a57600080fd5b6000612c6885828601612a10565b9250506020612c7985828601612a10565b9150509250929050565b6000612c8f8383613071565b60608301905092915050565b612ca481613635565b82525050565b612cb381613635565b82525050565b612cc281613623565b82525050565b6000612cd3826134fc565b612cdd818561352a565b9350612ce8836134ec565b8060005b83811015612d19578151612d008882612c83565b9750612d0b8361351d565b925050600181019050612cec565b5085935050505092915050565b612d2f81613647565b82525050565b6000612d4082613507565b612d4a818561353b565b9350612d5a8185602086016136b8565b612d6381613884565b840191505092915050565b6000612d7982613512565b612d83818561354c565b9350612d938185602086016136b8565b612d9c81613884565b840191505092915050565b6000612db282613512565b612dbc818561355d565b9350612dcc8185602086016136b8565b80840191505092915050565b6000612de5601f8361354c565b9150612df082613895565b602082019050919050565b6000612e0860328361354c565b9150612e13826138be565b604082019050919050565b6000612e2b60268361354c565b9150612e368261390d565b604082019050919050565b6000612e4e60258361354c565b9150612e598261395c565b604082019050919050565b6000612e7160108361354c565b9150612e7c826139ab565b602082019050919050565b6000612e9460248361354c565b9150612e9f826139d4565b604082019050919050565b6000612eb760198361354c565b9150612ec282613a23565b602082019050919050565b6000612eda602c8361354c565b9150612ee582613a4c565b604082019050919050565b6000612efd60388361354c565b9150612f0882613a9b565b604082019050919050565b6000612f20602a8361354c565b9150612f2b82613aea565b604082019050919050565b6000612f4360298361354c565b9150612f4e82613b39565b604082019050919050565b6000612f6660188361354c565b9150612f7182613b88565b602082019050919050565b6000612f89603e8361354c565b9150612f9482613bb1565b604082019050919050565b6000612fac602c8361354c565b9150612fb782613c00565b604082019050919050565b6000612fcf60208361354c565b9150612fda82613c4f565b602082019050919050565b6000612ff260248361354c565b9150612ffd82613c78565b604082019050919050565b6000613015602f8361354c565b915061302082613cc7565b604082019050919050565b600061303860218361354c565b915061304382613d16565b604082019050919050565b600061305b60318361354c565b915061306682613d65565b604082019050919050565b60608201600082015161308760008501826130b3565b50602082015161309a6020850182612c9b565b5060408201516130ad60408501826130b3565b50505050565b6130bc8161369f565b82525050565b6130cb8161369f565b82525050565b60006130dd8285612da7565b91506130e98284612da7565b91508190509392505050565b600060208201905061310a6000830184612cb9565b92915050565b60006080820190506131256000830187612cb9565b6131326020830186612cb9565b61313f60408301856130c2565b81810360608301526131518184612d35565b905095945050505050565b60006040820190506131716000830185612cb9565b61317e60208301846130c2565b9392505050565b6000602082019050818103600083015261319f8184612cc8565b905092915050565b60006020820190506131bc6000830184612d26565b92915050565b600060208201905081810360008301526131dc8184612d6e565b905092915050565b600060208201905081810360008301526131fd81612dd8565b9050919050565b6000602082019050818103600083015261321d81612dfb565b9050919050565b6000602082019050818103600083015261323d81612e1e565b9050919050565b6000602082019050818103600083015261325d81612e41565b9050919050565b6000602082019050818103600083015261327d81612e64565b9050919050565b6000602082019050818103600083015261329d81612e87565b9050919050565b600060208201905081810360008301526132bd81612eaa565b9050919050565b600060208201905081810360008301526132dd81612ecd565b9050919050565b600060208201905081810360008301526132fd81612ef0565b9050919050565b6000602082019050818103600083015261331d81612f13565b9050919050565b6000602082019050818103600083015261333d81612f36565b9050919050565b6000602082019050818103600083015261335d81612f59565b9050919050565b6000602082019050818103600083015261337d81612f7c565b9050919050565b6000602082019050818103600083015261339d81612f9f565b9050919050565b600060208201905081810360008301526133bd81612fc2565b9050919050565b600060208201905081810360008301526133dd81612fe5565b9050919050565b600060208201905081810360008301526133fd81613008565b9050919050565b6000602082019050818103600083015261341d8161302b565b9050919050565b6000602082019050818103600083015261343d8161304e565b9050919050565b600060208201905061345960008301846130c2565b92915050565b600060608201905061347460008301866130c2565b6134816020830185612caa565b61348e60408301846130c2565b949350505050565b60006134a06134b1565b90506134ac828261371d565b919050565b6000604051905090565b600067ffffffffffffffff8211156134d6576134d5613855565b5b6134df82613884565b9050602081019050919050565b6000819050602082019050919050565b600081519050919050565b600081519050919050565b600081519050919050565b6000602082019050919050565b600082825260208201905092915050565b600082825260208201905092915050565b600082825260208201905092915050565b600081905092915050565b60006135738261369f565b915061357e8361369f565b9250827fffffffffffffffffffffffffffffffffffffffffffffffffffffffffffffffff038211156135b3576135b26137c8565b5b828201905092915050565b60006135c98261369f565b91506135d48361369f565b9250826135e4576135e36137f7565b5b828204905092915050565b60006135fa8261369f565b91506136058361369f565b925082821015613618576136176137c8565b5b828203905092915050565b600061362e8261367f565b9050919050565b60006136408261367f565b9050919050565b60008115159050919050565b60007fffffffff0000000000000000000000000000000000000000000000000000000082169050919050565b600073ffffffffffffffffffffffffffffffffffffffff82169050919050565b6000819050919050565b82818337600083830152505050565b60005b838110156136d65780820151818401526020810190506136bb565b838111156136e5576000848401525b50505050565b6000600282049050600182168061370357607f821691505b6020821081141561371757613716613826565b5b50919050565b61372682613884565b810181811067ffffffffffffffff8211171561374557613744613855565b5b80604052505050565b60006137598261369f565b91507fffffffffffffffffffffffffffffffffffffffffffffffffffffffffffffffff82141561378c5761378b6137c8565b5b600182019050919050565b60006137a28261369f565b91506137ad8361369f565b9250826137bd576137bc6137f7565b5b828206905092915050565b7f4e487b7100000000000000000000000000000000000000000000000000000000600052601160045260246000fd5b7f4e487b7100000000000000000000000000000000000000000000000000000000600052601260045260246000fd5b7f4e487b7100000000000000000000000000000000000000000000000000000000600052602260045260246000fd5b7f4e487b7100000000000000000000000000000000000000000000000000000000600052604160045260246000fd5b6000601f19601f8301169050919050565b7f5072696365206d7573742062652067726561746572207468616e207a65726f00600082015250565b7f4552433732313a207472616e7366657220746f206e6f6e20455243373231526560008201527f63656976657220696d706c656d656e7465720000000000000000000000000000602082015250565b7f4f776e61626c653a206e6577206f776e657220697320746865207a65726f206160008201527f6464726573730000000000000000000000000000000000000000000000000000602082015250565b7f4552433732313a207472616e736665722066726f6d20696e636f72726563742060008201527f6f776e6572000000000000000000000000000000000000000000000000000000602082015250565b7f4d7573742070617920726f79616c747900000000000000000000000000000000600082015250565b7f4552433732313a207472616e7366657220746f20746865207a65726f2061646460008201527f7265737300000000000000000000000000000000000000000000000000000000602082015250565b7f4552433732313a20617070726f766520746f2063616c6c657200000000000000600082015250565b7f4552433732313a206f70657261746f7220717565727920666f72206e6f6e657860008201527f697374656e7420746f6b656e0000000000000000000000000000000000000000602082015250565b7f4552433732313a20617070726f76652063616c6c6572206973206e6f74206f7760008201527f6e6572206e6f7220617070726f76656420666f7220616c6c0000000000000000602082015250565b7f4552433732313a2062616c616e636520717565727920666f7220746865207a6560008201527f726f206164647265737300000000000000000000000000000000000000000000602082015250565b7f4552433732313a206f776e657220717565727920666f72206e6f6e657869737460008201527f656e7420746f6b656e0000000000000000000000000000000000000000000000602082015250565b7f4d75737420706179206d656d6265727368697020666565210000000000000000600082015250565b7f506c656173652073656e64207468652061736b696e6720707269636520696e2060008201527f6f7264657220746f20636f6d706c657465207468652070757263686173650000602082015250565b7f4552433732313a20617070726f76656420717565727920666f72206e6f6e657860008201527f697374656e7420746f6b656e0000000000000000000000000000000000000000602082015250565b7f4f776e61626c653a2063616c6c6572206973206e6f7420746865206f776e6572600082015250565b7f596f75206861766520616c7265616479206a6f696e65642061732061206d656d60008201527f6265722100000000000000000000000000000000000000000000000000000000602082015250565b7f4552433732314d657461646174613a2055524920717565727920666f72206e6f60008201527f6e6578697374656e7420746f6b656e0000000000000000000000000000000000602082015250565b7f4552433732313a20617070726f76616c20746f2063757272656e74206f776e6560008201527f7200000000000000000000000000000000000000000000000000000000000000602082015250565b7f4552433732313a207472616e736665722063616c6c6572206973206e6f74206f60008201527f776e6572206e6f7220617070726f766564000000000000000000000000000000602082015250565b613dbd81613623565b8114613dc857600080fd5b50565b613dd481613647565b8114613ddf57600080fd5b50565b613deb81613653565b8114613df657600080fd5b50565b613e028161369f565b8114613e0d57600080fd5b5056fea26469706673582212203ef1722c3be642b03ded624421d122c0eda3a29937ed8fcea3d8c1b54bb7016664736f6c6343000804003368747470733a2f2f6261667962656961696177796869646b727a7368693637343571776a64767477757a6274636e62353264646e6b70663568336b6f6d75687074326d2e697066732e6e667473746f726167652e6c696e6b2f",
  "linkReferences": {},
  "deployedLinkReferences": {}
}